{
  "_format": "hh-sol-artifact-1",
  "contractName": "DailyCheckIn",
  "sourceName": "contracts/DailyCheckIn.sol",
  "abi": [
    {
      "anonymous": false,
      "inputs": [
        {
          "indexed": true,
          "internalType": "address",
          "name": "user",
          "type": "address"
        },
        {
          "indexed": false,
          "internalType": "uint256",
          "name": "newStreak",
          "type": "uint256"
        }
      ],
      "name": "CheckedIn",
      "type": "event"
    },
    {
      "inputs": [],
      "name": "checkIn",
      "outputs": [],
      "stateMutability": "nonpayable",
      "type": "function"
    },
    {
      "inputs": [
        {
          "internalType": "address",
          "name": "user",
          "type": "address"
        }
      ],
      "name": "getStreak",
      "outputs": [
        {
          "internalType": "uint256",
          "name": "",
          "type": "uint256"
        }
      ],
      "stateMutability": "view",
      "type": "function"
    },
    {
      "inputs": [
        {
          "internalType": "address",
          "name": "",
          "type": "address"
        }
      ],
      "name": "lastCheckIn",
      "outputs": [
        {
          "internalType": "uint256",
          "name": "",
          "type": "uint256"
        }
      ],
      "stateMutability": "view",
      "type": "function"
    },
    {
      "inputs": [
        {
          "internalType": "address",
          "name": "",
          "type": "address"
        }
      ],
      "name": "streaks",
      "outputs": [
        {
          "internalType": "uint256",
          "name": "",
          "type": "uint256"
        }
      ],
      "stateMutability": "view",
      "type": "function"
    }
  ],
  "bytecode": "0x6080604052348015600f57600080fd5b506106348061001f6000396000f3fe608060405234801561001057600080fd5b506004361061004c5760003560e01c8063183ff085146100515780635eeadb0d1461005b57806379fd93651461008b578063ef6fdb1c146100bb575b600080fd5b6100596100eb565b005b61007560048036038101906100709190610415565b610339565b604051610082919061045b565b60405180910390f35b6100a560048036038101906100a09190610415565b610382565b6040516100b2919061045b565b60405180910390f35b6100d560048036038101906100d09190610415565b61039a565b6040516100e2919061045b565b60405180910390f35b600033905060008060008373ffffffffffffffffffffffffffffffffffffffff1673ffffffffffffffffffffffffffffffffffffffff1681526020019081526020016000205490506000429050620151808261014791906104d4565b620151808261015691906104d4565b11610196576040517f08c379a000000000000000000000000000000000000000000000000000000000815260040161018d90610562565b60405180910390fd5b600162015180836101a791906104d4565b6101b19190610582565b62015180826101c091906104d4565b0361021f57600160008473ffffffffffffffffffffffffffffffffffffffff1673ffffffffffffffffffffffffffffffffffffffff1681526020019081526020016000206000815480929190610215906105b6565b9190505550610264565b60018060008573ffffffffffffffffffffffffffffffffffffffff1673ffffffffffffffffffffffffffffffffffffffff168152602001908152602001600020819055505b806000808573ffffffffffffffffffffffffffffffffffffffff1673ffffffffffffffffffffffffffffffffffffffff168152602001908152602001600020819055508273ffffffffffffffffffffffffffffffffffffffff167fdddb6e14f7f2101397a6526aab95e964de7f1f44ed06aa47a1c9a0e6b9924456600160008673ffffffffffffffffffffffffffffffffffffffff1673ffffffffffffffffffffffffffffffffffffffff1681526020019081526020016000205460405161032c919061045b565b60405180910390a2505050565b6000600160008373ffffffffffffffffffffffffffffffffffffffff1673ffffffffffffffffffffffffffffffffffffffff168152602001908152602001600020549050919050565b60016020528060005260406000206000915090505481565b60006020528060005260406000206000915090505481565b600080fd5b600073ffffffffffffffffffffffffffffffffffffffff82169050919050565b60006103e2826103b7565b9050919050565b6103f2816103d7565b81146103fd57600080fd5b50565b60008135905061040f816103e9565b92915050565b60006020828403121561042b5761042a6103b2565b5b600061043984828501610400565b91505092915050565b6000819050919050565b61045581610442565b82525050565b6000602082019050610470600083018461044c565b92915050565b7f4e487b7100000000000000000000000000000000000000000000000000000000600052601260045260246000fd5b7f4e487b7100000000000000000000000000000000000000000000000000000000600052601160045260246000fd5b60006104df82610442565b91506104ea83610442565b9250826104fa576104f9610476565b5b828204905092915050565b600082825260208201905092915050565b7f416c726561647920636865636b656420696e20746f6461790000000000000000600082015250565b600061054c601883610505565b915061055782610516565b602082019050919050565b6000602082019050818103600083015261057b8161053f565b9050919050565b600061058d82610442565b915061059883610442565b92508282019050808211156105b0576105af6104a5565b5b92915050565b60006105c182610442565b91507fffffffffffffffffffffffffffffffffffffffffffffffffffffffffffffffff82036105f3576105f26104a5565b5b60018201905091905056fea2646970667358221220891ce3e112d3fc227567e5443c9a29783b0d8c54684824c2d0e49123ed7d902e64736f6c634300081a0033",
  "linkReferences": {},
  "deployedLinkReferences": {}
}