{
  "_format": "hh-sol-artifact-1",
  "contractName": "HelivaultCollections",
  "sourceName": "contracts/HelivaultCollections.sol",
  "abi": [
    {
      "inputs": [
        {
          "internalType": "address",
          "name": "hvtTokenAddress_",
          "type": "address"
        },
        {
          "internalType": "string",
          "name": "name_",
          "type": "string"
        },
        {
          "internalType": "string",
          "name": "symbol_",
          "type": "string"
        },
        {
          "internalType": "string",
          "name": "baseURI_",
          "type": "string"
        },
        {
          "internalType": "string",
          "name": "hiddenURI_",
          "type": "string"
        },
        {
          "internalType": "uint96",
          "name": "royaltyBips",
          "type": "uint96"
        },
        {
          "internalType": "uint256",
          "name": "maxSupply_",
          "type": "uint256"
        },
        {
          "internalType": "uint256",
          "name": "initialMintPrice_",
          "type": "uint256"
        }
      ],
      "stateMutability": "nonpayable",
      "type": "constructor"
    },
    {
      "inputs": [
        {
          "internalType": "uint256",
          "name": "numerator",
          "type": "uint256"
        },
        {
          "internalType": "uint256",
          "name": "denominator",
          "type": "uint256"
        }
      ],
      "name": "ERC2981InvalidDefaultRoyalty",
      "type": "error"
    },
    {
      "inputs": [
        {
          "internalType": "address",
          "name": "receiver",
          "type": "address"
        }
      ],
      "name": "ERC2981InvalidDefaultRoyaltyReceiver",
      "type": "error"
    },
    {
      "inputs": [
        {
          "internalType": "uint256",
          "name": "tokenId",
          "type": "uint256"
        },
        {
          "internalType": "uint256",
          "name": "numerator",
          "type": "uint256"
        },
        {
          "internalType": "uint256",
          "name": "denominator",
          "type": "uint256"
        }
      ],
      "name": "ERC2981InvalidTokenRoyalty",
      "type": "error"
    },
    {
      "inputs": [
        {
          "internalType": "uint256",
          "name": "tokenId",
          "type": "uint256"
        },
        {
          "internalType": "address",
          "name": "receiver",
          "type": "address"
        }
      ],
      "name": "ERC2981InvalidTokenRoyaltyReceiver",
      "type": "error"
    },
    {
      "inputs": [],
      "name": "ERC721EnumerableForbiddenBatchMint",
      "type": "error"
    },
    {
      "inputs": [
        {
          "internalType": "address",
          "name": "sender",
          "type": "address"
        },
        {
          "internalType": "uint256",
          "name": "tokenId",
          "type": "uint256"
        },
        {
          "internalType": "address",
          "name": "owner",
          "type": "address"
        }
      ],
      "name": "ERC721IncorrectOwner",
      "type": "error"
    },
    {
      "inputs": [
        {
          "internalType": "address",
          "name": "operator",
          "type": "address"
        },
        {
          "internalType": "uint256",
          "name": "tokenId",
          "type": "uint256"
        }
      ],
      "name": "ERC721InsufficientApproval",
      "type": "error"
    },
    {
      "inputs": [
        {
          "internalType": "address",
          "name": "approver",
          "type": "address"
        }
      ],
      "name": "ERC721InvalidApprover",
      "type": "error"
    },
    {
      "inputs": [
        {
          "internalType": "address",
          "name": "operator",
          "type": "address"
        }
      ],
      "name": "ERC721InvalidOperator",
      "type": "error"
    },
    {
      "inputs": [
        {
          "internalType": "address",
          "name": "owner",
          "type": "address"
        }
      ],
      "name": "ERC721InvalidOwner",
      "type": "error"
    },
    {
      "inputs": [
        {
          "internalType": "address",
          "name": "receiver",
          "type": "address"
        }
      ],
      "name": "ERC721InvalidReceiver",
      "type": "error"
    },
    {
      "inputs": [
        {
          "internalType": "address",
          "name": "sender",
          "type": "address"
        }
      ],
      "name": "ERC721InvalidSender",
      "type": "error"
    },
    {
      "inputs": [
        {
          "internalType": "uint256",
          "name": "tokenId",
          "type": "uint256"
        }
      ],
      "name": "ERC721NonexistentToken",
      "type": "error"
    },
    {
      "inputs": [
        {
          "internalType": "address",
          "name": "owner",
          "type": "address"
        },
        {
          "internalType": "uint256",
          "name": "index",
          "type": "uint256"
        }
      ],
      "name": "ERC721OutOfBoundsIndex",
      "type": "error"
    },
    {
      "inputs": [],
      "name": "EnforcedPause",
      "type": "error"
    },
    {
      "inputs": [],
      "name": "ExpectedPause",
      "type": "error"
    },
    {
      "inputs": [
        {
          "internalType": "address",
          "name": "owner",
          "type": "address"
        }
      ],
      "name": "OwnableInvalidOwner",
      "type": "error"
    },
    {
      "inputs": [
        {
          "internalType": "address",
          "name": "account",
          "type": "address"
        }
      ],
      "name": "OwnableUnauthorizedAccount",
      "type": "error"
    },
    {
      "inputs": [],
      "name": "ReentrancyGuardReentrantCall",
      "type": "error"
    },
    {
      "anonymous": false,
      "inputs": [
        {
          "indexed": true,
          "internalType": "address",
          "name": "owner",
          "type": "address"
        },
        {
          "indexed": true,
          "internalType": "address",
          "name": "approved",
          "type": "address"
        },
        {
          "indexed": true,
          "internalType": "uint256",
          "name": "tokenId",
          "type": "uint256"
        }
      ],
      "name": "Approval",
      "type": "event"
    },
    {
      "anonymous": false,
      "inputs": [
        {
          "indexed": true,
          "internalType": "address",
          "name": "owner",
          "type": "address"
        },
        {
          "indexed": true,
          "internalType": "address",
          "name": "operator",
          "type": "address"
        },
        {
          "indexed": false,
          "internalType": "bool",
          "name": "approved",
          "type": "bool"
        }
      ],
      "name": "ApprovalForAll",
      "type": "event"
    },
    {
      "anonymous": false,
      "inputs": [
        {
          "indexed": true,
          "internalType": "address",
          "name": "previousOwner",
          "type": "address"
        },
        {
          "indexed": true,
          "internalType": "address",
          "name": "newOwner",
          "type": "address"
        }
      ],
      "name": "OwnershipTransferred",
      "type": "event"
    },
    {
      "anonymous": false,
      "inputs": [
        {
          "indexed": false,
          "internalType": "address",
          "name": "account",
          "type": "address"
        }
      ],
      "name": "Paused",
      "type": "event"
    },
    {
      "anonymous": false,
      "inputs": [
        {
          "indexed": true,
          "internalType": "address",
          "name": "from",
          "type": "address"
        },
        {
          "indexed": true,
          "internalType": "address",
          "name": "to",
          "type": "address"
        },
        {
          "indexed": true,
          "internalType": "uint256",
          "name": "tokenId",
          "type": "uint256"
        }
      ],
      "name": "Transfer",
      "type": "event"
    },
    {
      "anonymous": false,
      "inputs": [
        {
          "indexed": false,
          "internalType": "address",
          "name": "account",
          "type": "address"
        }
      ],
      "name": "Unpaused",
      "type": "event"
    },
    {
      "inputs": [
        {
          "internalType": "address[]",
          "name": "recipients",
          "type": "address[]"
        }
      ],
      "name": "airdrop",
      "outputs": [],
      "stateMutability": "nonpayable",
      "type": "function"
    },
    {
      "inputs": [
        {
          "internalType": "address",
          "name": "to",
          "type": "address"
        },
        {
          "internalType": "uint256",
          "name": "tokenId",
          "type": "uint256"
        }
      ],
      "name": "approve",
      "outputs": [],
      "stateMutability": "nonpayable",
      "type": "function"
    },
    {
      "inputs": [
        {
          "internalType": "address",
          "name": "owner",
          "type": "address"
        }
      ],
      "name": "balanceOf",
      "outputs": [
        {
          "internalType": "uint256",
          "name": "",
          "type": "uint256"
        }
      ],
      "stateMutability": "view",
      "type": "function"
    },
    {
      "inputs": [
        {
          "internalType": "uint256",
          "name": "tokenId",
          "type": "uint256"
        }
      ],
      "name": "burn",
      "outputs": [],
      "stateMutability": "nonpayable",
      "type": "function"
    },
    {
      "inputs": [
        {
          "internalType": "uint256",
          "name": "tokenId",
          "type": "uint256"
        }
      ],
      "name": "getApproved",
      "outputs": [
        {
          "internalType": "address",
          "name": "",
          "type": "address"
        }
      ],
      "stateMutability": "view",
      "type": "function"
    },
    {
      "inputs": [],
      "name": "hvtToken",
      "outputs": [
        {
          "internalType": "contract IERC20",
          "name": "",
          "type": "address"
        }
      ],
      "stateMutability": "view",
      "type": "function"
    },
    {
      "inputs": [
        {
          "internalType": "address",
          "name": "owner",
          "type": "address"
        },
        {
          "internalType": "address",
          "name": "operator",
          "type": "address"
        }
      ],
      "name": "isApprovedForAll",
      "outputs": [
        {
          "internalType": "bool",
          "name": "",
          "type": "bool"
        }
      ],
      "stateMutability": "view",
      "type": "function"
    },
    {
      "inputs": [],
      "name": "maxSupply",
      "outputs": [
        {
          "internalType": "uint256",
          "name": "",
          "type": "uint256"
        }
      ],
      "stateMutability": "view",
      "type": "function"
    },
    {
      "inputs": [
        {
          "internalType": "uint256",
          "name": "quantity",
          "type": "uint256"
        }
      ],
      "name": "mint",
      "outputs": [],
      "stateMutability": "nonpayable",
      "type": "function"
    },
    {
      "inputs": [],
      "name": "mintPrice",
      "outputs": [
        {
          "internalType": "uint256",
          "name": "",
          "type": "uint256"
        }
      ],
      "stateMutability": "view",
      "type": "function"
    },
    {
      "inputs": [],
      "name": "name",
      "outputs": [
        {
          "internalType": "string",
          "name": "",
          "type": "string"
        }
      ],
      "stateMutability": "view",
      "type": "function"
    },
    {
      "inputs": [],
      "name": "owner",
      "outputs": [
        {
          "internalType": "address",
          "name": "",
          "type": "address"
        }
      ],
      "stateMutability": "view",
      "type": "function"
    },
    {
      "inputs": [
        {
          "internalType": "uint256",
          "name": "tokenId",
          "type": "uint256"
        }
      ],
      "name": "ownerOf",
      "outputs": [
        {
          "internalType": "address",
          "name": "",
          "type": "address"
        }
      ],
      "stateMutability": "view",
      "type": "function"
    },
    {
      "inputs": [],
      "name": "pause",
      "outputs": [],
      "stateMutability": "nonpayable",
      "type": "function"
    },
    {
      "inputs": [],
      "name": "paused",
      "outputs": [
        {
          "internalType": "bool",
          "name": "",
          "type": "bool"
        }
      ],
      "stateMutability": "view",
      "type": "function"
    },
    {
      "inputs": [],
      "name": "renounceOwnership",
      "outputs": [],
      "stateMutability": "nonpayable",
      "type": "function"
    },
    {
      "inputs": [],
      "name": "reveal",
      "outputs": [],
      "stateMutability": "nonpayable",
      "type": "function"
    },
    {
      "inputs": [],
      "name": "revealed",
      "outputs": [
        {
          "internalType": "bool",
          "name": "",
          "type": "bool"
        }
      ],
      "stateMutability": "view",
      "type": "function"
    },
    {
      "inputs": [
        {
          "internalType": "uint256",
          "name": "tokenId",
          "type": "uint256"
        },
        {
          "internalType": "uint256",
          "name": "salePrice",
          "type": "uint256"
        }
      ],
      "name": "royaltyInfo",
      "outputs": [
        {
          "internalType": "address",
          "name": "receiver",
          "type": "address"
        },
        {
          "internalType": "uint256",
          "name": "amount",
          "type": "uint256"
        }
      ],
      "stateMutability": "view",
      "type": "function"
    },
    {
      "inputs": [
        {
          "internalType": "address",
          "name": "from",
          "type": "address"
        },
        {
          "internalType": "address",
          "name": "to",
          "type": "address"
        },
        {
          "internalType": "uint256",
          "name": "tokenId",
          "type": "uint256"
        }
      ],
      "name": "safeTransferFrom",
      "outputs": [],
      "stateMutability": "nonpayable",
      "type": "function"
    },
    {
      "inputs": [
        {
          "internalType": "address",
          "name": "from",
          "type": "address"
        },
        {
          "internalType": "address",
          "name": "to",
          "type": "address"
        },
        {
          "internalType": "uint256",
          "name": "tokenId",
          "type": "uint256"
        },
        {
          "internalType": "bytes",
          "name": "data",
          "type": "bytes"
        }
      ],
      "name": "safeTransferFrom",
      "outputs": [],
      "stateMutability": "nonpayable",
      "type": "function"
    },
    {
      "inputs": [
        {
          "internalType": "address",
          "name": "operator",
          "type": "address"
        },
        {
          "internalType": "bool",
          "name": "approved",
          "type": "bool"
        }
      ],
      "name": "setApprovalForAll",
      "outputs": [],
      "stateMutability": "nonpayable",
      "type": "function"
    },
    {
      "inputs": [
        {
          "internalType": "string",
          "name": "baseURI_",
          "type": "string"
        }
      ],
      "name": "setBaseURI",
      "outputs": [],
      "stateMutability": "nonpayable",
      "type": "function"
    },
    {
      "inputs": [
        {
          "internalType": "uint256",
          "name": "newPrice",
          "type": "uint256"
        }
      ],
      "name": "setMintPrice",
      "outputs": [],
      "stateMutability": "nonpayable",
      "type": "function"
    },
    {
      "inputs": [
        {
          "internalType": "address",
          "name": "receiver",
          "type": "address"
        },
        {
          "internalType": "uint96",
          "name": "feeNumerator",
          "type": "uint96"
        }
      ],
      "name": "setRoyalty",
      "outputs": [],
      "stateMutability": "nonpayable",
      "type": "function"
    },
    {
      "inputs": [
        {
          "internalType": "bytes4",
          "name": "interfaceId",
          "type": "bytes4"
        }
      ],
      "name": "supportsInterface",
      "outputs": [
        {
          "internalType": "bool",
          "name": "",
          "type": "bool"
        }
      ],
      "stateMutability": "view",
      "type": "function"
    },
    {
      "inputs": [],
      "name": "symbol",
      "outputs": [
        {
          "internalType": "string",
          "name": "",
          "type": "string"
        }
      ],
      "stateMutability": "view",
      "type": "function"
    },
    {
      "inputs": [
        {
          "internalType": "uint256",
          "name": "index",
          "type": "uint256"
        }
      ],
      "name": "tokenByIndex",
      "outputs": [
        {
          "internalType": "uint256",
          "name": "",
          "type": "uint256"
        }
      ],
      "stateMutability": "view",
      "type": "function"
    },
    {
      "inputs": [
        {
          "internalType": "address",
          "name": "owner",
          "type": "address"
        },
        {
          "internalType": "uint256",
          "name": "index",
          "type": "uint256"
        }
      ],
      "name": "tokenOfOwnerByIndex",
      "outputs": [
        {
          "internalType": "uint256",
          "name": "",
          "type": "uint256"
        }
      ],
      "stateMutability": "view",
      "type": "function"
    },
    {
      "inputs": [
        {
          "internalType": "uint256",
          "name": "tokenId",
          "type": "uint256"
        }
      ],
      "name": "tokenURI",
      "outputs": [
        {
          "internalType": "string",
          "name": "",
          "type": "string"
        }
      ],
      "stateMutability": "view",
      "type": "function"
    },
    {
      "inputs": [],
      "name": "totalSupply",
      "outputs": [
        {
          "internalType": "uint256",
          "name": "",
          "type": "uint256"
        }
      ],
      "stateMutability": "view",
      "type": "function"
    },
    {
      "inputs": [
        {
          "internalType": "address",
          "name": "from",
          "type": "address"
        },
        {
          "internalType": "address",
          "name": "to",
          "type": "address"
        },
        {
          "internalType": "uint256",
          "name": "tokenId",
          "type": "uint256"
        }
      ],
      "name": "transferFrom",
      "outputs": [],
      "stateMutability": "nonpayable",
      "type": "function"
    },
    {
      "inputs": [
        {
          "internalType": "address",
          "name": "newOwner",
          "type": "address"
        }
      ],
      "name": "transferOwnership",
      "outputs": [],
      "stateMutability": "nonpayable",
      "type": "function"
    },
    {
      "inputs": [],
      "name": "unpause",
      "outputs": [],
      "stateMutability": "nonpayable",
      "type": "function"
    },
    {
      "inputs": [],
      "name": "withdraw",
      "outputs": [],
      "stateMutability": "nonpayable",
      "type": "function"
    },
    {
      "inputs": [],
      "name": "withdrawHVT",
      "outputs": [],
      "stateMutability": "nonpayable",
      "type": "function"
    }
  ],
  "bytecode": "0x608060405234801561001057600080fd5b506040516149093803806149098339818101604052810190610032919061064d565b3387878160009081610044919061098a565b508060019081610054919061098a565b505050600073ffffffffffffffffffffffffffffffffffffffff168173ffffffffffffffffffffffffffffffffffffffff16036100c95760006040517f1e4fbdf70000000000000000000000000000000000000000000000000000000081526004016100c09190610a6b565b60405180910390fd5b6100d88161018860201b60201c565b506001600e8190555087600f60006101000a81548173ffffffffffffffffffffffffffffffffffffffff021916908373ffffffffffffffffffffffffffffffffffffffff1602179055508460129081610131919061098a565b508360139081610141919061098a565b5081601081905550610159338461024e60201b60201c565b806011819055506000601460006101000a81548160ff0219169083151502179055505050505050505050610aef565b6000600d60009054906101000a900473ffffffffffffffffffffffffffffffffffffffff16905081600d60006101000a81548173ffffffffffffffffffffffffffffffffffffffff021916908373ffffffffffffffffffffffffffffffffffffffff1602179055508173ffffffffffffffffffffffffffffffffffffffff168173ffffffffffffffffffffffffffffffffffffffff167f8be0079c531659141344cd1fd0a4f28419497f9722a3daafe3b4186f6b6457e060405160405180910390a35050565b600061025e6103f660201b60201c565b6bffffffffffffffffffffffff16905080826bffffffffffffffffffffffff1611156102c35781816040517f6f483d090000000000000000000000000000000000000000000000000000000081526004016102ba929190610ac6565b60405180910390fd5b600073ffffffffffffffffffffffffffffffffffffffff168373ffffffffffffffffffffffffffffffffffffffff16036103355760006040517fb6d9900a00000000000000000000000000000000000000000000000000000000815260040161032c9190610a6b565b60405180910390fd5b60405180604001604052808473ffffffffffffffffffffffffffffffffffffffff168152602001836bffffffffffffffffffffffff16815250600b60008201518160000160006101000a81548173ffffffffffffffffffffffffffffffffffffffff021916908373ffffffffffffffffffffffffffffffffffffffff16021790555060208201518160000160146101000a8154816bffffffffffffffffffffffff02191690836bffffffffffffffffffffffff160217905550905050505050565b6000612710905090565b6000604051905090565b600080fd5b600080fd5b600073ffffffffffffffffffffffffffffffffffffffff82169050919050565b600061043f82610414565b9050919050565b61044f81610434565b811461045a57600080fd5b50565b60008151905061046c81610446565b92915050565b600080fd5b600080fd5b6000601f19601f8301169050919050565b7f4e487b7100000000000000000000000000000000000000000000000000000000600052604160045260246000fd5b6104c58261047c565b810181811067ffffffffffffffff821117156104e4576104e361048d565b5b80604052505050565b60006104f7610400565b905061050382826104bc565b919050565b600067ffffffffffffffff8211156105235761052261048d565b5b61052c8261047c565b9050602081019050919050565b60005b8381101561055757808201518184015260208101905061053c565b60008484015250505050565b600061057661057184610508565b6104ed565b90508281526020810184848401111561059257610591610477565b5b61059d848285610539565b509392505050565b600082601f8301126105ba576105b9610472565b5b81516105ca848260208601610563565b91505092915050565b60006bffffffffffffffffffffffff82169050919050565b6105f4816105d3565b81146105ff57600080fd5b50565b600081519050610611816105eb565b92915050565b6000819050919050565b61062a81610617565b811461063557600080fd5b50565b60008151905061064781610621565b92915050565b600080600080600080600080610100898b03121561066e5761066d61040a565b5b600061067c8b828c0161045d565b985050602089015167ffffffffffffffff81111561069d5761069c61040f565b5b6106a98b828c016105a5565b975050604089015167ffffffffffffffff8111156106ca576106c961040f565b5b6106d68b828c016105a5565b965050606089015167ffffffffffffffff8111156106f7576106f661040f565b5b6107038b828c016105a5565b955050608089015167ffffffffffffffff8111156107245761072361040f565b5b6107308b828c016105a5565b94505060a06107418b828c01610602565b93505060c06107528b828c01610638565b92505060e06107638b828c01610638565b9150509295985092959890939650565b600081519050919050565b7f4e487b7100000000000000000000000000000000000000000000000000000000600052602260045260246000fd5b600060028204905060018216806107c557607f821691505b6020821081036107d8576107d761077e565b5b50919050565b60008190508160005260206000209050919050565b60006020601f8301049050919050565b600082821b905092915050565b6000600883026108407fffffffffffffffffffffffffffffffffffffffffffffffffffffffffffffffff82610803565b61084a8683610803565b95508019841693508086168417925050509392505050565b6000819050919050565b600061088761088261087d84610617565b610862565b610617565b9050919050565b6000819050919050565b6108a18361086c565b6108b56108ad8261088e565b848454610810565b825550505050565b600090565b6108ca6108bd565b6108d5818484610898565b505050565b5b818110156108f9576108ee6000826108c2565b6001810190506108db565b5050565b601f82111561093e5761090f816107de565b610918846107f3565b81016020851015610927578190505b61093b610933856107f3565b8301826108da565b50505b505050565b600082821c905092915050565b600061096160001984600802610943565b1980831691505092915050565b600061097a8383610950565b9150826002028217905092915050565b61099382610773565b67ffffffffffffffff8111156109ac576109ab61048d565b5b6109b682546107ad565b6109c18282856108fd565b600060209050601f8311600181146109f457600084156109e2578287015190505b6109ec858261096e565b865550610a54565b601f198416610a02866107de565b60005b82811015610a2a57848901518255600182019150602085019450602081019050610a05565b86831015610a475784890151610a43601f891682610950565b8355505b6001600288020188555050505b505050505050565b610a6581610434565b82525050565b6000602082019050610a806000830184610a5c565b92915050565b6000610aa1610a9c610a97846105d3565b610862565b610617565b9050919050565b610ab181610a86565b82525050565b610ac081610617565b82525050565b6000604082019050610adb6000830185610aa8565b610ae86020830184610ab7565b9392505050565b613e0b80610afe6000396000f3fe608060405234801561001057600080fd5b506004361061021c5760003560e01c806370a0823111610125578063a22cb465116100ad578063d5abeb011161007c578063d5abeb01146105c8578063e985e9c5146105e6578063eb4036f914610616578063f2fde38b14610634578063f4a0a528146106505761021c565b8063a22cb46514610556578063a475b5dd14610572578063b88d4fde1461057c578063c87b56dd146105985761021c565b80638da5cb5b116100f45780638da5cb5b146104d85780638f2fc60b146104f657806395d89b4114610512578063994964e114610530578063a0712d681461053a5761021c565b806370a0823114610478578063715018a6146104a8578063729ad39e146104b25780638456cb59146104ce5761021c565b80633f4ba83a116101a8578063518302271161017757806351830227146103d257806355f804b3146103f05780635c975abb1461040c5780636352211e1461042a5780636817c76c1461045a5761021c565b80633f4ba83a1461036057806342842e0e1461036a57806342966c68146103865780634f6ccce7146103a25761021c565b806318160ddd116101ef57806318160ddd146102bb57806323b872dd146102d95780632a55205a146102f55780632f745c59146103265780633ccfd60b146103565761021c565b806301ffc9a71461022157806306fdde0314610251578063081812fc1461026f578063095ea7b31461029f575b600080fd5b61023b60048036038101906102369190612c99565b61066c565b6040516102489190612ce1565b60405180910390f35b61025961067e565b6040516102669190612d8c565b60405180910390f35b61028960048036038101906102849190612de4565b610710565b6040516102969190612e52565b60405180910390f35b6102b960048036038101906102b49190612e99565b61072c565b005b6102c3610742565b6040516102d09190612ee8565b60405180910390f35b6102f360048036038101906102ee9190612f03565b61074f565b005b61030f600480360381019061030a9190612f56565b610851565b60405161031d929190612f96565b60405180910390f35b610340600480360381019061033b9190612e99565b610981565b60405161034d9190612ee8565b60405180910390f35b61035e610a2a565b005b610368610af8565b005b610384600480360381019061037f9190612f03565b610b0a565b005b6103a0600480360381019061039b9190612de4565b610b2a565b005b6103bc60048036038101906103b79190612de4565b610b41565b6040516103c99190612ee8565b60405180910390f35b6103da610bb7565b6040516103e79190612ce1565b60405180910390f35b61040a600480360381019061040591906130f4565b610bca565b005b610414610be5565b6040516104219190612ce1565b60405180910390f35b610444600480360381019061043f9190612de4565b610bfc565b6040516104519190612e52565b60405180910390f35b610462610c0e565b60405161046f9190612ee8565b60405180910390f35b610492600480360381019061048d919061313d565b610c14565b60405161049f9190612ee8565b60405180910390f35b6104b0610cce565b005b6104cc60048036038101906104c791906131ca565b610ce2565b005b6104d6610da8565b005b6104e0610dba565b6040516104ed9190612e52565b60405180910390f35b610510600480360381019061050b919061325b565b610de4565b005b61051a610dfa565b6040516105279190612d8c565b60405180910390f35b610538610e8c565b005b610554600480360381019061054f9190612de4565b61102d565b005b610570600480360381019061056b91906132c7565b6111b1565b005b61057a6111c7565b005b610596600480360381019061059191906133a8565b6111ec565b005b6105b260048036038101906105ad9190612de4565b611211565b6040516105bf9190612d8c565b60405180910390f35b6105d061127a565b6040516105dd9190612ee8565b60405180910390f35b61060060048036038101906105fb919061342b565b611280565b60405161060d9190612ce1565b60405180910390f35b61061e611314565b60405161062b91906134ca565b60405180910390f35b61064e6004803603810190610649919061313d565b61133a565b005b61066a60048036038101906106659190612de4565b6113c0565b005b6000610677826113d2565b9050919050565b60606000805461068d90613514565b80601f01602080910402602001604051908101604052809291908181526020018280546106b990613514565b80156107065780601f106106db57610100808354040283529160200191610706565b820191906000526020600020905b8154815290600101906020018083116106e957829003601f168201915b5050505050905090565b600061071b8261144c565b50610725826114d4565b9050919050565b61073e8282610739611511565b611519565b5050565b6000600880549050905090565b600073ffffffffffffffffffffffffffffffffffffffff168273ffffffffffffffffffffffffffffffffffffffff16036107c15760006040517f64a0ae920000000000000000000000000000000000000000000000000000000081526004016107b89190612e52565b60405180910390fd5b60006107d583836107d0611511565b61152b565b90508373ffffffffffffffffffffffffffffffffffffffff168173ffffffffffffffffffffffffffffffffffffffff161461084b578382826040517f64283d7b00000000000000000000000000000000000000000000000000000000815260040161084293929190613545565b60405180910390fd5b50505050565b6000806000600c6000868152602001908152602001600020905060008160000160009054906101000a900473ffffffffffffffffffffffffffffffffffffffff16905060008260000160149054906101000a90046bffffffffffffffffffffffff169050600073ffffffffffffffffffffffffffffffffffffffff168273ffffffffffffffffffffffffffffffffffffffff160361093257600b60000160009054906101000a900473ffffffffffffffffffffffffffffffffffffffff169150600b60000160149054906101000a90046bffffffffffffffffffffffff1690505b600061093c611541565b6bffffffffffffffffffffffff16826bffffffffffffffffffffffff168861096491906135ab565b61096e919061361c565b9050828195509550505050509250929050565b600061098c83610c14565b82106109d15782826040517fa57d13dc0000000000000000000000000000000000000000000000000000000081526004016109c8929190612f96565b60405180910390fd5b600660008473ffffffffffffffffffffffffffffffffffffffff1673ffffffffffffffffffffffffffffffffffffffff168152602001908152602001600020600083815260200190815260200160002054905092915050565b610a3261154b565b610a3a6115d2565b6000610a44610dba565b73ffffffffffffffffffffffffffffffffffffffff1647604051610a679061367e565b60006040518083038185875af1925050503d8060008114610aa4576040519150601f19603f3d011682016040523d82523d6000602084013e610aa9565b606091505b5050905080610aed576040517f08c379a0000000000000000000000000000000000000000000000000000000008152600401610ae4906136df565b60405180910390fd5b50610af6611618565b565b610b0061154b565b610b08611622565b565b610b25838383604051806020016040528060008152506111ec565b505050565b610b3d600082610b38611511565b61152b565b5050565b6000610b4b610742565b8210610b91576000826040517fa57d13dc000000000000000000000000000000000000000000000000000000008152600401610b88929190612f96565b60405180910390fd5b60088281548110610ba557610ba46136ff565b5b90600052602060002001549050919050565b601460009054906101000a900460ff1681565b610bd261154b565b8060129081610be191906138d0565b5050565b6000600a60009054906101000a900460ff16905090565b6000610c078261144c565b9050919050565b60115481565b60008073ffffffffffffffffffffffffffffffffffffffff168273ffffffffffffffffffffffffffffffffffffffff1603610c875760006040517f89c62b64000000000000000000000000000000000000000000000000000000008152600401610c7e9190612e52565b60405180910390fd5b600360008373ffffffffffffffffffffffffffffffffffffffff1673ffffffffffffffffffffffffffffffffffffffff168152602001908152602001600020549050919050565b610cd661154b565b610ce06000611685565b565b610cea61154b565b60105482829050610cf9610742565b610d0391906139a2565b1115610d44576040517f08c379a0000000000000000000000000000000000000000000000000000000008152600401610d3b90613a22565b60405180910390fd5b60005b82829050811015610da357610d96838383818110610d6857610d676136ff565b5b9050602002016020810190610d7d919061313d565b6001610d87610742565b610d9191906139a2565b61174b565b8080600101915050610d47565b505050565b610db061154b565b610db8611769565b565b6000600d60009054906101000a900473ffffffffffffffffffffffffffffffffffffffff16905090565b610dec61154b565b610df682826117cc565b5050565b606060018054610e0990613514565b80601f0160208091040260200160405190810160405280929190818152602001828054610e3590613514565b8015610e825780601f10610e5757610100808354040283529160200191610e82565b820191906000526020600020905b815481529060010190602001808311610e6557829003601f168201915b5050505050905090565b610e9461154b565b610e9c6115d2565b6000600f60009054906101000a900473ffffffffffffffffffffffffffffffffffffffff1673ffffffffffffffffffffffffffffffffffffffff166370a08231306040518263ffffffff1660e01b8152600401610ef99190612e52565b602060405180830381865afa158015610f16573d6000803e3d6000fd5b505050506040513d601f19601f82011682018060405250810190610f3a9190613a57565b9050600f60009054906101000a900473ffffffffffffffffffffffffffffffffffffffff1673ffffffffffffffffffffffffffffffffffffffff1663a9059cbb610f82610dba565b836040518363ffffffff1660e01b8152600401610fa0929190612f96565b6020604051808303816000875af1158015610fbf573d6000803e3d6000fd5b505050506040513d601f19601f82011682018060405250810190610fe39190613a99565b611022576040517f08c379a000000000000000000000000000000000000000000000000000000000815260040161101990613b12565b60405180910390fd5b5061102b611618565b565b60105481611039610742565b61104391906139a2565b1115611084576040517f08c379a000000000000000000000000000000000000000000000000000000000815260040161107b90613b7e565b60405180910390fd5b60008160115461109491906135ab565b9050600f60009054906101000a900473ffffffffffffffffffffffffffffffffffffffff1673ffffffffffffffffffffffffffffffffffffffff166323b872dd3330846040518463ffffffff1660e01b81526004016110f593929190613b9e565b6020604051808303816000875af1158015611114573d6000803e3d6000fd5b505050506040513d601f19601f820116820180604052508101906111389190613a99565b611177576040517f08c379a000000000000000000000000000000000000000000000000000000000815260040161116e90613b12565b60405180910390fd5b60005b828110156111ac5761119f336001611190610742565b61119a91906139a2565b61174b565b808060010191505061117a565b505050565b6111c36111bc611511565b838361196e565b5050565b6111cf61154b565b6001601460006101000a81548160ff021916908315150217905550565b6111f784848461074f565b61120b611202611511565b85858585611add565b50505050565b606061121c8261144c565b506000611227611c8e565b905060008151116112475760405180602001604052806000815250611272565b8061125184611d3c565b604051602001611262929190613c11565b6040516020818303038152906040525b915050919050565b60105481565b6000600560008473ffffffffffffffffffffffffffffffffffffffff1673ffffffffffffffffffffffffffffffffffffffff16815260200190815260200160002060008373ffffffffffffffffffffffffffffffffffffffff1673ffffffffffffffffffffffffffffffffffffffff16815260200190815260200160002060009054906101000a900460ff16905092915050565b600f60009054906101000a900473ffffffffffffffffffffffffffffffffffffffff1681565b61134261154b565b600073ffffffffffffffffffffffffffffffffffffffff168173ffffffffffffffffffffffffffffffffffffffff16036113b45760006040517f1e4fbdf70000000000000000000000000000000000000000000000000000000081526004016113ab9190612e52565b60405180910390fd5b6113bd81611685565b50565b6113c861154b565b8060118190555050565b60007f2a55205a000000000000000000000000000000000000000000000000000000007bffffffffffffffffffffffffffffffffffffffffffffffffffffffff1916827bffffffffffffffffffffffffffffffffffffffffffffffffffffffff19161480611445575061144482611e0a565b5b9050919050565b60008061145883611e84565b9050600073ffffffffffffffffffffffffffffffffffffffff168173ffffffffffffffffffffffffffffffffffffffff16036114cb57826040517f7e2732890000000000000000000000000000000000000000000000000000000081526004016114c29190612ee8565b60405180910390fd5b80915050919050565b60006004600083815260200190815260200160002060009054906101000a900473ffffffffffffffffffffffffffffffffffffffff169050919050565b600033905090565b6115268383836001611ec1565b505050565b6000611538848484612086565b90509392505050565b6000612710905090565b611553611511565b73ffffffffffffffffffffffffffffffffffffffff16611571610dba565b73ffffffffffffffffffffffffffffffffffffffff16146115d057611594611511565b6040517f118cdaa70000000000000000000000000000000000000000000000000000000081526004016115c79190612e52565b60405180910390fd5b565b6002600e540361160e576040517f3ee5aeb500000000000000000000000000000000000000000000000000000000815260040160405180910390fd5b6002600e81905550565b6001600e81905550565b61162a6120a4565b6000600a60006101000a81548160ff0219169083151502179055507f5db9ee0a495bf2e6ff9c91a7834c1ba4fdd244a5e8aa4e537bd38aeae4b073aa61166e611511565b60405161167b9190612e52565b60405180910390a1565b6000600d60009054906101000a900473ffffffffffffffffffffffffffffffffffffffff16905081600d60006101000a81548173ffffffffffffffffffffffffffffffffffffffff021916908373ffffffffffffffffffffffffffffffffffffffff1602179055508173ffffffffffffffffffffffffffffffffffffffff168173ffffffffffffffffffffffffffffffffffffffff167f8be0079c531659141344cd1fd0a4f28419497f9722a3daafe3b4186f6b6457e060405160405180910390a35050565b6117658282604051806020016040528060008152506120e4565b5050565b611771612108565b6001600a60006101000a81548160ff0219169083151502179055507f62e78cea01bee320cd4e420270b5ea74000d11b0c9f74754ebdbfc544b05a2586117b5611511565b6040516117c29190612e52565b60405180910390a1565b60006117d6611541565b6bffffffffffffffffffffffff16905080826bffffffffffffffffffffffff16111561183b5781816040517f6f483d09000000000000000000000000000000000000000000000000000000008152600401611832929190613c66565b60405180910390fd5b600073ffffffffffffffffffffffffffffffffffffffff168373ffffffffffffffffffffffffffffffffffffffff16036118ad5760006040517fb6d9900a0000000000000000000000000000000000000000000000000000000081526004016118a49190612e52565b60405180910390fd5b60405180604001604052808473ffffffffffffffffffffffffffffffffffffffff168152602001836bffffffffffffffffffffffff16815250600b60008201518160000160006101000a81548173ffffffffffffffffffffffffffffffffffffffff021916908373ffffffffffffffffffffffffffffffffffffffff16021790555060208201518160000160146101000a8154816bffffffffffffffffffffffff02191690836bffffffffffffffffffffffff160217905550905050505050565b600073ffffffffffffffffffffffffffffffffffffffff168273ffffffffffffffffffffffffffffffffffffffff16036119df57816040517f5b08ba180000000000000000000000000000000000000000000000000000000081526004016119d69190612e52565b60405180910390fd5b80600560008573ffffffffffffffffffffffffffffffffffffffff1673ffffffffffffffffffffffffffffffffffffffff16815260200190815260200160002060008473ffffffffffffffffffffffffffffffffffffffff1673ffffffffffffffffffffffffffffffffffffffff16815260200190815260200160002060006101000a81548160ff0219169083151502179055508173ffffffffffffffffffffffffffffffffffffffff168373ffffffffffffffffffffffffffffffffffffffff167f17307eab39ab6107e8899845ad3d59bd9653f200f220920489ca2b5937696c3183604051611ad09190612ce1565b60405180910390a3505050565b60008373ffffffffffffffffffffffffffffffffffffffff163b1115611c87578273ffffffffffffffffffffffffffffffffffffffff1663150b7a02868685856040518563ffffffff1660e01b8152600401611b3c9493929190613ce4565b6020604051808303816000875af1925050508015611b7857506040513d601f19601f82011682018060405250810190611b759190613d45565b60015b611bfc573d8060008114611ba8576040519150601f19603f3d011682016040523d82523d6000602084013e611bad565b606091505b506000815103611bf457836040517f64a0ae92000000000000000000000000000000000000000000000000000000008152600401611beb9190612e52565b60405180910390fd5b805181602001fd5b63150b7a0260e01b7bffffffffffffffffffffffffffffffffffffffffffffffffffffffff1916817bffffffffffffffffffffffffffffffffffffffffffffffffffffffff191614611c8557836040517f64a0ae92000000000000000000000000000000000000000000000000000000008152600401611c7c9190612e52565b60405180910390fd5b505b5050505050565b6060601460009054906101000a900460ff16611cab576013611cae565b60125b8054611cb990613514565b80601f0160208091040260200160405190810160405280929190818152602001828054611ce590613514565b8015611d325780601f10611d0757610100808354040283529160200191611d32565b820191906000526020600020905b815481529060010190602001808311611d1557829003601f168201915b5050505050905090565b606060006001611d4b84612149565b01905060008167ffffffffffffffff811115611d6a57611d69612fc9565b5b6040519080825280601f01601f191660200182016040528015611d9c5781602001600182028036833780820191505090505b509050600082602001820190505b600115611dff578080600190039150507f3031323334353637383961626364656600000000000000000000000000000000600a86061a8153600a8581611df357611df26135ed565b5b04945060008503611daa575b819350505050919050565b60007f780e9d63000000000000000000000000000000000000000000000000000000007bffffffffffffffffffffffffffffffffffffffffffffffffffffffff1916827bffffffffffffffffffffffffffffffffffffffffffffffffffffffff19161480611e7d5750611e7c8261229c565b5b9050919050565b60006002600083815260200190815260200160002060009054906101000a900473ffffffffffffffffffffffffffffffffffffffff169050919050565b8080611efa5750600073ffffffffffffffffffffffffffffffffffffffff168273ffffffffffffffffffffffffffffffffffffffff1614155b1561202e576000611f0a8461144c565b9050600073ffffffffffffffffffffffffffffffffffffffff168373ffffffffffffffffffffffffffffffffffffffff1614158015611f7557508273ffffffffffffffffffffffffffffffffffffffff168173ffffffffffffffffffffffffffffffffffffffff1614155b8015611f885750611f868184611280565b155b15611fca57826040517fa9fbf51f000000000000000000000000000000000000000000000000000000008152600401611fc19190612e52565b60405180910390fd5b811561202c57838573ffffffffffffffffffffffffffffffffffffffff168273ffffffffffffffffffffffffffffffffffffffff167f8c5be1e5ebec7d5bd14f71427d1e84f3dd0314c0f7b2291e5b200ac8c7c3b92560405160405180910390a45b505b836004600085815260200190815260200160002060006101000a81548173ffffffffffffffffffffffffffffffffffffffff021916908373ffffffffffffffffffffffffffffffffffffffff16021790555050505050565b6000612090612108565b61209b84848461237e565b90509392505050565b6120ac610be5565b6120e2576040517f8dfc202b00000000000000000000000000000000000000000000000000000000815260040160405180910390fd5b565b6120ee838361249b565b6121036120f9611511565b6000858585611add565b505050565b612110610be5565b15612147576040517fd93c066500000000000000000000000000000000000000000000000000000000815260040160405180910390fd5b565b600080600090507a184f03e93ff9f4daa797ed6e38ed64bf6a1f01000000000000000083106121a7577a184f03e93ff9f4daa797ed6e38ed64bf6a1f010000000000000000838161219d5761219c6135ed565b5b0492506040810190505b6d04ee2d6d415b85acef810000000083106121e4576d04ee2d6d415b85acef810000000083816121da576121d96135ed565b5b0492506020810190505b662386f26fc10000831061221357662386f26fc100008381612209576122086135ed565b5b0492506010810190505b6305f5e100831061223c576305f5e1008381612232576122316135ed565b5b0492506008810190505b6127108310612261576127108381612257576122566135ed565b5b0492506004810190505b60648310612284576064838161227a576122796135ed565b5b0492506002810190505b600a8310612293576001810190505b80915050919050565b60007f80ac58cd000000000000000000000000000000000000000000000000000000007bffffffffffffffffffffffffffffffffffffffffffffffffffffffff1916827bffffffffffffffffffffffffffffffffffffffffffffffffffffffff1916148061236757507f5b5e139f000000000000000000000000000000000000000000000000000000007bffffffffffffffffffffffffffffffffffffffffffffffffffffffff1916827bffffffffffffffffffffffffffffffffffffffffffffffffffffffff1916145b80612377575061237682612594565b5b9050919050565b60008061238c8585856125fe565b9050600073ffffffffffffffffffffffffffffffffffffffff168173ffffffffffffffffffffffffffffffffffffffff16036123d0576123cb84612818565b61240f565b8473ffffffffffffffffffffffffffffffffffffffff168173ffffffffffffffffffffffffffffffffffffffff161461240e5761240d8185612861565b5b5b600073ffffffffffffffffffffffffffffffffffffffff168573ffffffffffffffffffffffffffffffffffffffff16036124515761244c8461294c565b612490565b8473ffffffffffffffffffffffffffffffffffffffff168173ffffffffffffffffffffffffffffffffffffffff161461248f5761248e8585612a1d565b5b5b809150509392505050565b600073ffffffffffffffffffffffffffffffffffffffff168273ffffffffffffffffffffffffffffffffffffffff160361250d5760006040517f64a0ae920000000000000000000000000000000000000000000000000000000081526004016125049190612e52565b60405180910390fd5b600061251b8383600061152b565b9050600073ffffffffffffffffffffffffffffffffffffffff168173ffffffffffffffffffffffffffffffffffffffff161461258f5760006040517f73c6ac6e0000000000000000000000000000000000000000000000000000000081526004016125869190612e52565b60405180910390fd5b505050565b60007f01ffc9a7000000000000000000000000000000000000000000000000000000007bffffffffffffffffffffffffffffffffffffffffffffffffffffffff1916827bffffffffffffffffffffffffffffffffffffffffffffffffffffffff1916149050919050565b60008061260a84611e84565b9050600073ffffffffffffffffffffffffffffffffffffffff168373ffffffffffffffffffffffffffffffffffffffff161461264c5761264b818486612aa8565b5b600073ffffffffffffffffffffffffffffffffffffffff168173ffffffffffffffffffffffffffffffffffffffff16146126dd5761268e600085600080611ec1565b6001600360008373ffffffffffffffffffffffffffffffffffffffff1673ffffffffffffffffffffffffffffffffffffffff168152602001908152602001600020600082825403925050819055505b600073ffffffffffffffffffffffffffffffffffffffff168573ffffffffffffffffffffffffffffffffffffffff1614612760576001600360008773ffffffffffffffffffffffffffffffffffffffff1673ffffffffffffffffffffffffffffffffffffffff168152602001908152602001600020600082825401925050819055505b846002600086815260200190815260200160002060006101000a81548173ffffffffffffffffffffffffffffffffffffffff021916908373ffffffffffffffffffffffffffffffffffffffff160217905550838573ffffffffffffffffffffffffffffffffffffffff168273ffffffffffffffffffffffffffffffffffffffff167fddf252ad1be2c89b69c2b068fc378daa952ba7f163c4a11628f55a4df523b3ef60405160405180910390a4809150509392505050565b6008805490506009600083815260200190815260200160002081905550600881908060018154018082558091505060019003906000526020600020016000909190919091505550565b600061286c83610c14565b90506000600760008481526020019081526020016000205490506000600660008673ffffffffffffffffffffffffffffffffffffffff1673ffffffffffffffffffffffffffffffffffffffff16815260200190815260200160002090508282146129185760008160008581526020019081526020016000205490508082600085815260200190815260200160002081905550826007600083815260200190815260200160002081905550505b6007600085815260200190815260200160002060009055806000848152602001908152602001600020600090555050505050565b600060016008805490506129609190613d72565b90506000600960008481526020019081526020016000205490506000600883815481106129905761298f6136ff565b5b9060005260206000200154905080600883815481106129b2576129b16136ff565b5b906000526020600020018190555081600960008381526020019081526020016000208190555060096000858152602001908152602001600020600090556008805480612a0157612a00613da6565b5b6001900381819060005260206000200160009055905550505050565b60006001612a2a84610c14565b612a349190613d72565b905081600660008573ffffffffffffffffffffffffffffffffffffffff1673ffffffffffffffffffffffffffffffffffffffff168152602001908152602001600020600083815260200190815260200160002081905550806007600084815260200190815260200160002081905550505050565b612ab3838383612b6c565b612b6757600073ffffffffffffffffffffffffffffffffffffffff168373ffffffffffffffffffffffffffffffffffffffff1603612b2857806040517f7e273289000000000000000000000000000000000000000000000000000000008152600401612b1f9190612ee8565b60405180910390fd5b81816040517f177e802f000000000000000000000000000000000000000000000000000000008152600401612b5e929190612f96565b60405180910390fd5b505050565b60008073ffffffffffffffffffffffffffffffffffffffff168373ffffffffffffffffffffffffffffffffffffffff1614158015612c2457508273ffffffffffffffffffffffffffffffffffffffff168473ffffffffffffffffffffffffffffffffffffffff161480612be55750612be48484611280565b5b80612c2357508273ffffffffffffffffffffffffffffffffffffffff16612c0b836114d4565b73ffffffffffffffffffffffffffffffffffffffff16145b5b90509392505050565b6000604051905090565b600080fd5b600080fd5b60007fffffffff0000000000000000000000000000000000000000000000000000000082169050919050565b612c7681612c41565b8114612c8157600080fd5b50565b600081359050612c9381612c6d565b92915050565b600060208284031215612caf57612cae612c37565b5b6000612cbd84828501612c84565b91505092915050565b60008115159050919050565b612cdb81612cc6565b82525050565b6000602082019050612cf66000830184612cd2565b92915050565b600081519050919050565b600082825260208201905092915050565b60005b83811015612d36578082015181840152602081019050612d1b565b60008484015250505050565b6000601f19601f8301169050919050565b6000612d5e82612cfc565b612d688185612d07565b9350612d78818560208601612d18565b612d8181612d42565b840191505092915050565b60006020820190508181036000830152612da68184612d53565b905092915050565b6000819050919050565b612dc181612dae565b8114612dcc57600080fd5b50565b600081359050612dde81612db8565b92915050565b600060208284031215612dfa57612df9612c37565b5b6000612e0884828501612dcf565b91505092915050565b600073ffffffffffffffffffffffffffffffffffffffff82169050919050565b6000612e3c82612e11565b9050919050565b612e4c81612e31565b82525050565b6000602082019050612e676000830184612e43565b92915050565b612e7681612e31565b8114612e8157600080fd5b50565b600081359050612e9381612e6d565b92915050565b60008060408385031215612eb057612eaf612c37565b5b6000612ebe85828601612e84565b9250506020612ecf85828601612dcf565b9150509250929050565b612ee281612dae565b82525050565b6000602082019050612efd6000830184612ed9565b92915050565b600080600060608486031215612f1c57612f1b612c37565b5b6000612f2a86828701612e84565b9350506020612f3b86828701612e84565b9250506040612f4c86828701612dcf565b9150509250925092565b60008060408385031215612f6d57612f6c612c37565b5b6000612f7b85828601612dcf565b9250506020612f8c85828601612dcf565b9150509250929050565b6000604082019050612fab6000830185612e43565b612fb86020830184612ed9565b9392505050565b600080fd5b600080fd5b7f4e487b7100000000000000000000000000000000000000000000000000000000600052604160045260246000fd5b61300182612d42565b810181811067ffffffffffffffff821117156130205761301f612fc9565b5b80604052505050565b6000613033612c2d565b905061303f8282612ff8565b919050565b600067ffffffffffffffff82111561305f5761305e612fc9565b5b61306882612d42565b9050602081019050919050565b82818337600083830152505050565b600061309761309284613044565b613029565b9050828152602081018484840111156130b3576130b2612fc4565b5b6130be848285613075565b509392505050565b600082601f8301126130db576130da612fbf565b5b81356130eb848260208601613084565b91505092915050565b60006020828403121561310a57613109612c37565b5b600082013567ffffffffffffffff81111561312857613127612c3c565b5b613134848285016130c6565b91505092915050565b60006020828403121561315357613152612c37565b5b600061316184828501612e84565b91505092915050565b600080fd5b600080fd5b60008083601f84011261318a57613189612fbf565b5b8235905067ffffffffffffffff8111156131a7576131a661316a565b5b6020830191508360208202830111156131c3576131c261316f565b5b9250929050565b600080602083850312156131e1576131e0612c37565b5b600083013567ffffffffffffffff8111156131ff576131fe612c3c565b5b61320b85828601613174565b92509250509250929050565b60006bffffffffffffffffffffffff82169050919050565b61323881613217565b811461324357600080fd5b50565b6000813590506132558161322f565b92915050565b6000806040838503121561327257613271612c37565b5b600061328085828601612e84565b925050602061329185828601613246565b9150509250929050565b6132a481612cc6565b81146132af57600080fd5b50565b6000813590506132c18161329b565b92915050565b600080604083850312156132de576132dd612c37565b5b60006132ec85828601612e84565b92505060206132fd858286016132b2565b9150509250929050565b600067ffffffffffffffff82111561332257613321612fc9565b5b61332b82612d42565b9050602081019050919050565b600061334b61334684613307565b613029565b90508281526020810184848401111561336757613366612fc4565b5b613372848285613075565b509392505050565b600082601f83011261338f5761338e612fbf565b5b813561339f848260208601613338565b91505092915050565b600080600080608085870312156133c2576133c1612c37565b5b60006133d087828801612e84565b94505060206133e187828801612e84565b93505060406133f287828801612dcf565b925050606085013567ffffffffffffffff81111561341357613412612c3c565b5b61341f8782880161337a565b91505092959194509250565b6000806040838503121561344257613441612c37565b5b600061345085828601612e84565b925050602061346185828601612e84565b9150509250929050565b6000819050919050565b600061349061348b61348684612e11565b61346b565b612e11565b9050919050565b60006134a282613475565b9050919050565b60006134b482613497565b9050919050565b6134c4816134a9565b82525050565b60006020820190506134df60008301846134bb565b92915050565b7f4e487b7100000000000000000000000000000000000000000000000000000000600052602260045260246000fd5b6000600282049050600182168061352c57607f821691505b60208210810361353f5761353e6134e5565b5b50919050565b600060608201905061355a6000830186612e43565b6135676020830185612ed9565b6135746040830184612e43565b949350505050565b7f4e487b7100000000000000000000000000000000000000000000000000000000600052601160045260246000fd5b60006135b682612dae565b91506135c183612dae565b92508282026135cf81612dae565b915082820484148315176135e6576135e561357c565b5b5092915050565b7f4e487b7100000000000000000000000000000000000000000000000000000000600052601260045260246000fd5b600061362782612dae565b915061363283612dae565b925082613642576136416135ed565b5b828204905092915050565b600081905092915050565b50565b600061366860008361364d565b915061367382613658565b600082019050919050565b60006136898261365b565b9150819050919050565b7f5472616e73666572206661696c65642e00000000000000000000000000000000600082015250565b60006136c9601083612d07565b91506136d482613693565b602082019050919050565b600060208201905081810360008301526136f8816136bc565b9050919050565b7f4e487b7100000000000000000000000000000000000000000000000000000000600052603260045260246000fd5b60008190508160005260206000209050919050565b60006020601f8301049050919050565b600082821b905092915050565b6000600883026137907fffffffffffffffffffffffffffffffffffffffffffffffffffffffffffffffff82613753565b61379a8683613753565b95508019841693508086168417925050509392505050565b60006137cd6137c86137c384612dae565b61346b565b612dae565b9050919050565b6000819050919050565b6137e7836137b2565b6137fb6137f3826137d4565b848454613760565b825550505050565b600090565b613810613803565b61381b8184846137de565b505050565b5b8181101561383f57613834600082613808565b600181019050613821565b5050565b601f821115613884576138558161372e565b61385e84613743565b8101602085101561386d578190505b61388161387985613743565b830182613820565b50505b505050565b600082821c905092915050565b60006138a760001984600802613889565b1980831691505092915050565b60006138c08383613896565b9150826002028217905092915050565b6138d982612cfc565b67ffffffffffffffff8111156138f2576138f1612fc9565b5b6138fc8254613514565b613907828285613843565b600060209050601f83116001811461393a5760008415613928578287015190505b61393285826138b4565b86555061399a565b601f1984166139488661372e565b60005b828110156139705784890151825560018201915060208501945060208101905061394b565b8683101561398d5784890151613989601f891682613896565b8355505b6001600288020188555050505b505050505050565b60006139ad82612dae565b91506139b883612dae565b92508282019050808211156139d0576139cf61357c565b5b92915050565b7f41697264726f702065786365656473206d617820737570706c79000000000000600082015250565b6000613a0c601a83612d07565b9150613a17826139d6565b602082019050919050565b60006020820190508181036000830152613a3b816139ff565b9050919050565b600081519050613a5181612db8565b92915050565b600060208284031215613a6d57613a6c612c37565b5b6000613a7b84828501613a42565b91505092915050565b600081519050613a938161329b565b92915050565b600060208284031215613aaf57613aae612c37565b5b6000613abd84828501613a84565b91505092915050565b7f485654207472616e73666572206661696c656400000000000000000000000000600082015250565b6000613afc601383612d07565b9150613b0782613ac6565b602082019050919050565b60006020820190508181036000830152613b2b81613aef565b9050919050565b7f4d617820737570706c7920726561636865640000000000000000000000000000600082015250565b6000613b68601283612d07565b9150613b7382613b32565b602082019050919050565b60006020820190508181036000830152613b9781613b5b565b9050919050565b6000606082019050613bb36000830186612e43565b613bc06020830185612e43565b613bcd6040830184612ed9565b949350505050565b600081905092915050565b6000613beb82612cfc565b613bf58185613bd5565b9350613c05818560208601612d18565b80840191505092915050565b6000613c1d8285613be0565b9150613c298284613be0565b91508190509392505050565b6000613c50613c4b613c4684613217565b61346b565b612dae565b9050919050565b613c6081613c35565b82525050565b6000604082019050613c7b6000830185613c57565b613c886020830184612ed9565b9392505050565b600081519050919050565b600082825260208201905092915050565b6000613cb682613c8f565b613cc08185613c9a565b9350613cd0818560208601612d18565b613cd981612d42565b840191505092915050565b6000608082019050613cf96000830187612e43565b613d066020830186612e43565b613d136040830185612ed9565b8181036060830152613d258184613cab565b905095945050505050565b600081519050613d3f81612c6d565b92915050565b600060208284031215613d5b57613d5a612c37565b5b6000613d6984828501613d30565b91505092915050565b6000613d7d82612dae565b9150613d8883612dae565b9250828203905081811115613da057613d9f61357c565b5b92915050565b7f4e487b7100000000000000000000000000000000000000000000000000000000600052603160045260246000fdfea26469706673582212207844edd5f9c0bfa4adfc4af537a4a39ac4cc27d6bdd29afedfb6a4b83a72964a64736f6c634300081a0033",
  "linkReferences": {},
  "deployedLinkReferences": {}
}