{
  "_format": "hh-sol-artifact-1",
  "contractName": "Lottery",
  "sourceName": "contracts/Lottery.sol",
  "abi": [
    {
      "inputs": [
        {
          "internalType": "uint256",
          "name": "_entryPrice",
          "type": "uint256"
        }
      ],
      "stateMutability": "nonpayable",
      "type": "constructor"
    },
    {
      "inputs": [
        {
          "internalType": "address",
          "name": "owner",
          "type": "address"
        }
      ],
      "name": "OwnableInvalidOwner",
      "type": "error"
    },
    {
      "inputs": [
        {
          "internalType": "address",
          "name": "account",
          "type": "address"
        }
      ],
      "name": "OwnableUnauthorizedAccount",
      "type": "error"
    },
    {
      "inputs": [],
      "name": "ReentrancyGuardReentrantCall",
      "type": "error"
    },
    {
      "anonymous": false,
      "inputs": [
        {
          "indexed": true,
          "internalType": "address",
          "name": "previousOwner",
          "type": "address"
        },
        {
          "indexed": true,
          "internalType": "address",
          "name": "newOwner",
          "type": "address"
        }
      ],
      "name": "OwnershipTransferred",
      "type": "event"
    },
    {
      "anonymous": false,
      "inputs": [
        {
          "indexed": true,
          "internalType": "address",
          "name": "winner",
          "type": "address"
        },
        {
          "indexed": false,
          "internalType": "uint256",
          "name": "amount",
          "type": "uint256"
        }
      ],
      "name": "WinnerPaid",
      "type": "event"
    },
    {
      "inputs": [],
      "name": "enter",
      "outputs": [],
      "stateMutability": "payable",
      "type": "function"
    },
    {
      "inputs": [],
      "name": "entryPrice",
      "outputs": [
        {
          "internalType": "uint256",
          "name": "",
          "type": "uint256"
        }
      ],
      "stateMutability": "view",
      "type": "function"
    },
    {
      "inputs": [],
      "name": "fund",
      "outputs": [],
      "stateMutability": "payable",
      "type": "function"
    },
    {
      "inputs": [],
      "name": "lastWinner",
      "outputs": [
        {
          "internalType": "address",
          "name": "",
          "type": "address"
        }
      ],
      "stateMutability": "view",
      "type": "function"
    },
    {
      "inputs": [],
      "name": "lastWinnerAmount",
      "outputs": [
        {
          "internalType": "uint256",
          "name": "",
          "type": "uint256"
        }
      ],
      "stateMutability": "view",
      "type": "function"
    },
    {
      "inputs": [],
      "name": "owner",
      "outputs": [
        {
          "internalType": "address",
          "name": "",
          "type": "address"
        }
      ],
      "stateMutability": "view",
      "type": "function"
    },
    {
      "inputs": [],
      "name": "renounceOwnership",
      "outputs": [],
      "stateMutability": "nonpayable",
      "type": "function"
    },
    {
      "inputs": [
        {
          "internalType": "uint256",
          "name": "_newPrice",
          "type": "uint256"
        }
      ],
      "name": "setEntryPrice",
      "outputs": [],
      "stateMutability": "nonpayable",
      "type": "function"
    },
    {
      "inputs": [
        {
          "internalType": "address",
          "name": "newOwner",
          "type": "address"
        }
      ],
      "name": "transferOwnership",
      "outputs": [],
      "stateMutability": "nonpayable",
      "type": "function"
    },
    {
      "inputs": [],
      "name": "withdraw",
      "outputs": [],
      "stateMutability": "nonpayable",
      "type": "function"
    },
    {
      "stateMutability": "payable",
      "type": "receive"
    }
  ],
  "bytecode": "0x608060405234801561001057600080fd5b50604051610e5f380380610e5f833981810160405281019061003291906101c8565b33600073ffffffffffffffffffffffffffffffffffffffff168173ffffffffffffffffffffffffffffffffffffffff16036100a55760006040517f1e4fbdf700000000000000000000000000000000000000000000000000000000815260040161009c9190610236565b60405180910390fd5b6100b4816100c960201b60201c565b50600180819055508060028190555050610251565b60008060009054906101000a900473ffffffffffffffffffffffffffffffffffffffff169050816000806101000a81548173ffffffffffffffffffffffffffffffffffffffff021916908373ffffffffffffffffffffffffffffffffffffffff1602179055508173ffffffffffffffffffffffffffffffffffffffff168173ffffffffffffffffffffffffffffffffffffffff167f8be0079c531659141344cd1fd0a4f28419497f9722a3daafe3b4186f6b6457e060405160405180910390a35050565b600080fd5b6000819050919050565b6101a581610192565b81146101b057600080fd5b50565b6000815190506101c28161019c565b92915050565b6000602082840312156101de576101dd61018d565b5b60006101ec848285016101b3565b91505092915050565b600073ffffffffffffffffffffffffffffffffffffffff82169050919050565b6000610220826101f5565b9050919050565b61023081610215565b82525050565b600060208201905061024b6000830184610227565b92915050565b610bff806102606000396000f3fe6080604052600436106100955760003560e01c8063b60d428811610059578063b60d42881461014e578063e97dcb6214610158578063f2fde38b14610162578063f745adfc1461018b578063fe188184146101b65761009c565b806306f7f3bf146100a15780633ccfd60b146100cc578063715018a6146100e35780638da5cb5b146100fa578063a6e77af1146101255761009c565b3661009c57005b600080fd5b3480156100ad57600080fd5b506100b66101e1565b6040516100c391906107c9565b60405180910390f35b3480156100d857600080fd5b506100e16101e7565b005b3480156100ef57600080fd5b506100f86102a5565b005b34801561010657600080fd5b5061010f6102b9565b60405161011c9190610825565b60405180910390f35b34801561013157600080fd5b5061014c60048036038101906101479190610871565b6102e2565b005b6101566102f4565b005b6101606102fe565b005b34801561016e57600080fd5b50610189600480360381019061018491906108ca565b61055c565b005b34801561019757600080fd5b506101a06105e2565b6040516101ad91906107c9565b60405180910390f35b3480156101c257600080fd5b506101cb6105e8565b6040516101d89190610825565b60405180910390f35b60035481565b6101ef61060e565b60006101f96102b9565b73ffffffffffffffffffffffffffffffffffffffff164760405161021c90610928565b60006040518083038185875af1925050503d8060008114610259576040519150601f19603f3d011682016040523d82523d6000602084013e61025e565b606091505b50509050806102a2576040517f08c379a00000000000000000000000000000000000000000000000000000000081526004016102999061099a565b60405180910390fd5b50565b6102ad61060e565b6102b76000610695565b565b60008060009054906101000a900473ffffffffffffffffffffffffffffffffffffffff16905090565b6102ea61060e565b8060028190555050565b6102fc61060e565b565b610306610759565b600254341461034a576040517f08c379a000000000000000000000000000000000000000000000000000000000815260040161034190610a06565b60405180910390fd5b600042443360405160200161036193929190610a8f565b6040516020818303038152906040528051906020012060001c905060008047905060006103e8846103929190610afb565b9050600a8110156103b1576002826103aa9190610b2c565b92506103f9565b603c8110156103ce57600a826103c79190610b2c565b92506103f8565b60d28110156103eb576028826103e49190610b2c565b92506103f7565b67010a741a4627800092505b5b5b600083111561054e5733600460006101000a81548173ffffffffffffffffffffffffffffffffffffffff021916908373ffffffffffffffffffffffffffffffffffffffff160217905550826003819055503373ffffffffffffffffffffffffffffffffffffffff167f8cbbe5cd65720098fc8ce6e99a5deb232085117dd486475b49cb11604b528f308460405161049091906107c9565b60405180910390a282471061054d5760003373ffffffffffffffffffffffffffffffffffffffff16846040516104c590610928565b60006040518083038185875af1925050503d8060008114610502576040519150601f19603f3d011682016040523d82523d6000602084013e610507565b606091505b505090508061054b576040517f08c379a000000000000000000000000000000000000000000000000000000000815260040161054290610ba9565b60405180910390fd5b505b5b5050505061055a61079f565b565b61056461060e565b600073ffffffffffffffffffffffffffffffffffffffff168173ffffffffffffffffffffffffffffffffffffffff16036105d65760006040517f1e4fbdf70000000000000000000000000000000000000000000000000000000081526004016105cd9190610825565b60405180910390fd5b6105df81610695565b50565b60025481565b600460009054906101000a900473ffffffffffffffffffffffffffffffffffffffff1681565b6106166107a8565b73ffffffffffffffffffffffffffffffffffffffff166106346102b9565b73ffffffffffffffffffffffffffffffffffffffff1614610693576106576107a8565b6040517f118cdaa700000000000000000000000000000000000000000000000000000000815260040161068a9190610825565b60405180910390fd5b565b60008060009054906101000a900473ffffffffffffffffffffffffffffffffffffffff169050816000806101000a81548173ffffffffffffffffffffffffffffffffffffffff021916908373ffffffffffffffffffffffffffffffffffffffff1602179055508173ffffffffffffffffffffffffffffffffffffffff168173ffffffffffffffffffffffffffffffffffffffff167f8be0079c531659141344cd1fd0a4f28419497f9722a3daafe3b4186f6b6457e060405160405180910390a35050565b600260015403610795576040517f3ee5aeb500000000000000000000000000000000000000000000000000000000815260040160405180910390fd5b6002600181905550565b60018081905550565b600033905090565b6000819050919050565b6107c3816107b0565b82525050565b60006020820190506107de60008301846107ba565b92915050565b600073ffffffffffffffffffffffffffffffffffffffff82169050919050565b600061080f826107e4565b9050919050565b61081f81610804565b82525050565b600060208201905061083a6000830184610816565b92915050565b600080fd5b61084e816107b0565b811461085957600080fd5b50565b60008135905061086b81610845565b92915050565b60006020828403121561088757610886610840565b5b60006108958482850161085c565b91505092915050565b6108a781610804565b81146108b257600080fd5b50565b6000813590506108c48161089e565b92915050565b6000602082840312156108e0576108df610840565b5b60006108ee848285016108b5565b91505092915050565b600081905092915050565b50565b60006109126000836108f7565b915061091d82610902565b600082019050919050565b600061093382610905565b9150819050919050565b600082825260208201905092915050565b7f5769746864726177616c206661696c65642e0000000000000000000000000000600082015250565b600061098460128361093d565b915061098f8261094e565b602082019050919050565b600060208201905081810360008301526109b381610977565b9050919050565b7f496e636f727265637420656e7472792070726963650000000000000000000000600082015250565b60006109f060158361093d565b91506109fb826109ba565b602082019050919050565b60006020820190508181036000830152610a1f816109e3565b9050919050565b6000819050919050565b610a41610a3c826107b0565b610a26565b82525050565b60008160601b9050919050565b6000610a5f82610a47565b9050919050565b6000610a7182610a54565b9050919050565b610a89610a8482610804565b610a66565b82525050565b6000610a9b8286610a30565b602082019150610aab8285610a30565b602082019150610abb8284610a78565b601482019150819050949350505050565b7f4e487b7100000000000000000000000000000000000000000000000000000000600052601260045260246000fd5b6000610b06826107b0565b9150610b11836107b0565b925082610b2157610b20610acc565b5b828206905092915050565b6000610b37826107b0565b9150610b42836107b0565b925082610b5257610b51610acc565b5b828204905092915050565b7f5472616e73666572206661696c65642e00000000000000000000000000000000600082015250565b6000610b9360108361093d565b9150610b9e82610b5d565b602082019050919050565b60006020820190508181036000830152610bc281610b86565b905091905056fea26469706673582212202c5102f110def9fb6d8dfdc4b73792fabd1403480c17dcb62c6bd07f7cb24c0464736f6c634300081a0033",
  "linkReferences": {},
  "deployedLinkReferences": {}
}