{
  "_format": "hh-sol-artifact-1",
  "contractName": "Lottery",
  "sourceName": "contracts/Lottery.sol",
  "abi": [
    {
      "inputs": [
        {
          "internalType": "uint256",
          "name": "_entryPrice",
          "type": "uint256"
        }
      ],
      "stateMutability": "nonpayable",
      "type": "constructor"
    },
    {
      "inputs": [
        {
          "internalType": "address",
          "name": "owner",
          "type": "address"
        }
      ],
      "name": "OwnableInvalidOwner",
      "type": "error"
    },
    {
      "inputs": [
        {
          "internalType": "address",
          "name": "account",
          "type": "address"
        }
      ],
      "name": "OwnableUnauthorizedAccount",
      "type": "error"
    },
    {
      "inputs": [],
      "name": "ReentrancyGuardReentrantCall",
      "type": "error"
    },
    {
      "anonymous": false,
      "inputs": [
        {
          "indexed": true,
          "internalType": "address",
          "name": "previousOwner",
          "type": "address"
        },
        {
          "indexed": true,
          "internalType": "address",
          "name": "newOwner",
          "type": "address"
        }
      ],
      "name": "OwnershipTransferred",
      "type": "event"
    },
    {
      "anonymous": false,
      "inputs": [
        {
          "indexed": true,
          "internalType": "address",
          "name": "winner",
          "type": "address"
        },
        {
          "indexed": false,
          "internalType": "uint256",
          "name": "amount",
          "type": "uint256"
        }
      ],
      "name": "WinnerPaid",
      "type": "event"
    },
    {
      "inputs": [],
      "name": "enter",
      "outputs": [],
      "stateMutability": "payable",
      "type": "function"
    },
    {
      "inputs": [],
      "name": "entryPrice",
      "outputs": [
        {
          "internalType": "uint256",
          "name": "",
          "type": "uint256"
        }
      ],
      "stateMutability": "view",
      "type": "function"
    },
    {
      "inputs": [],
      "name": "fund",
      "outputs": [],
      "stateMutability": "payable",
      "type": "function"
    },
    {
      "inputs": [],
      "name": "lastWinner",
      "outputs": [
        {
          "internalType": "address",
          "name": "",
          "type": "address"
        }
      ],
      "stateMutability": "view",
      "type": "function"
    },
    {
      "inputs": [],
      "name": "lastWinnerAmount",
      "outputs": [
        {
          "internalType": "uint256",
          "name": "",
          "type": "uint256"
        }
      ],
      "stateMutability": "view",
      "type": "function"
    },
    {
      "inputs": [],
      "name": "owner",
      "outputs": [
        {
          "internalType": "address",
          "name": "",
          "type": "address"
        }
      ],
      "stateMutability": "view",
      "type": "function"
    },
    {
      "inputs": [],
      "name": "renounceOwnership",
      "outputs": [],
      "stateMutability": "nonpayable",
      "type": "function"
    },
    {
      "inputs": [
        {
          "internalType": "uint256",
          "name": "_newPrice",
          "type": "uint256"
        }
      ],
      "name": "setEntryPrice",
      "outputs": [],
      "stateMutability": "nonpayable",
      "type": "function"
    },
    {
      "inputs": [
        {
          "internalType": "address",
          "name": "newOwner",
          "type": "address"
        }
      ],
      "name": "transferOwnership",
      "outputs": [],
      "stateMutability": "nonpayable",
      "type": "function"
    },
    {
      "inputs": [],
      "name": "withdraw",
      "outputs": [],
      "stateMutability": "nonpayable",
      "type": "function"
    },
    {
      "stateMutability": "payable",
      "type": "receive"
    }
  ],
  "bytecode": "0x608060405234801561001057600080fd5b50604051610e64380380610e64833981810160405281019061003291906101c8565b33600073ffffffffffffffffffffffffffffffffffffffff168173ffffffffffffffffffffffffffffffffffffffff16036100a55760006040517f1e4fbdf700000000000000000000000000000000000000000000000000000000815260040161009c9190610236565b60405180910390fd5b6100b4816100c960201b60201c565b50600180819055508060028190555050610251565b60008060009054906101000a900473ffffffffffffffffffffffffffffffffffffffff169050816000806101000a81548173ffffffffffffffffffffffffffffffffffffffff021916908373ffffffffffffffffffffffffffffffffffffffff1602179055508173ffffffffffffffffffffffffffffffffffffffff168173ffffffffffffffffffffffffffffffffffffffff167f8be0079c531659141344cd1fd0a4f28419497f9722a3daafe3b4186f6b6457e060405160405180910390a35050565b600080fd5b6000819050919050565b6101a581610192565b81146101b057600080fd5b50565b6000815190506101c28161019c565b92915050565b6000602082840312156101de576101dd61018d565b5b60006101ec848285016101b3565b91505092915050565b600073ffffffffffffffffffffffffffffffffffffffff82169050919050565b6000610220826101f5565b9050919050565b61023081610215565b82525050565b600060208201905061024b6000830184610227565b92915050565b610c04806102606000396000f3fe6080604052600436106100955760003560e01c8063b60d428811610059578063b60d42881461014e578063e97dcb6214610158578063f2fde38b14610162578063f745adfc1461018b578063fe188184146101b65761009c565b806306f7f3bf146100a15780633ccfd60b146100cc578063715018a6146100e35780638da5cb5b146100fa578063a6e77af1146101255761009c565b3661009c57005b600080fd5b3480156100ad57600080fd5b506100b66101e1565b6040516100c391906107ce565b60405180910390f35b3480156100d857600080fd5b506100e16101e7565b005b3480156100ef57600080fd5b506100f86102a5565b005b34801561010657600080fd5b5061010f6102b9565b60405161011c919061082a565b60405180910390f35b34801561013157600080fd5b5061014c60048036038101906101479190610876565b6102e2565b005b6101566102f4565b005b6101606102fe565b005b34801561016e57600080fd5b50610189600480360381019061018491906108cf565b610561565b005b34801561019757600080fd5b506101a06105e7565b6040516101ad91906107ce565b60405180910390f35b3480156101c257600080fd5b506101cb6105ed565b6040516101d8919061082a565b60405180910390f35b60035481565b6101ef610613565b60006101f96102b9565b73ffffffffffffffffffffffffffffffffffffffff164760405161021c9061092d565b60006040518083038185875af1925050503d8060008114610259576040519150601f19603f3d011682016040523d82523d6000602084013e61025e565b606091505b50509050806102a2576040517f08c379a00000000000000000000000000000000000000000000000000000000081526004016102999061099f565b60405180910390fd5b50565b6102ad610613565b6102b7600061069a565b565b60008060009054906101000a900473ffffffffffffffffffffffffffffffffffffffff16905090565b6102ea610613565b8060028190555050565b6102fc610613565b565b61030661075e565b600254341461034a576040517f08c379a000000000000000000000000000000000000000000000000000000000815260040161034190610a0b565b60405180910390fd5b600042443360405160200161036193929190610a94565b6040516020818303038152906040528051906020012060001c905060008047905060006103e8846103929190610b00565b9050600a8110156103b1576002826103aa9190610b31565b92506103fa565b606e8110156103ce57600a826103c79190610b31565b92506103f9565b6101688110156103ec576028826103e59190610b31565b92506103f8565b67010a741a4627800092505b5b5b82471015801561040a5750600083115b156105535760003373ffffffffffffffffffffffffffffffffffffffff16846040516104359061092d565b60006040518083038185875af1925050503d8060008114610472576040519150601f19603f3d011682016040523d82523d6000602084013e610477565b606091505b50509050806104bb576040517f08c379a00000000000000000000000000000000000000000000000000000000081526004016104b290610bae565b60405180910390fd5b33600460006101000a81548173ffffffffffffffffffffffffffffffffffffffff021916908373ffffffffffffffffffffffffffffffffffffffff160217905550836003819055503373ffffffffffffffffffffffffffffffffffffffff167f8cbbe5cd65720098fc8ce6e99a5deb232085117dd486475b49cb11604b528f308560405161054991906107ce565b60405180910390a2505b5050505061055f6107a4565b565b610569610613565b600073ffffffffffffffffffffffffffffffffffffffff168173ffffffffffffffffffffffffffffffffffffffff16036105db5760006040517f1e4fbdf70000000000000000000000000000000000000000000000000000000081526004016105d2919061082a565b60405180910390fd5b6105e48161069a565b50565b60025481565b600460009054906101000a900473ffffffffffffffffffffffffffffffffffffffff1681565b61061b6107ad565b73ffffffffffffffffffffffffffffffffffffffff166106396102b9565b73ffffffffffffffffffffffffffffffffffffffff16146106985761065c6107ad565b6040517f118cdaa700000000000000000000000000000000000000000000000000000000815260040161068f919061082a565b60405180910390fd5b565b60008060009054906101000a900473ffffffffffffffffffffffffffffffffffffffff169050816000806101000a81548173ffffffffffffffffffffffffffffffffffffffff021916908373ffffffffffffffffffffffffffffffffffffffff1602179055508173ffffffffffffffffffffffffffffffffffffffff168173ffffffffffffffffffffffffffffffffffffffff167f8be0079c531659141344cd1fd0a4f28419497f9722a3daafe3b4186f6b6457e060405160405180910390a35050565b60026001540361079a576040517f3ee5aeb500000000000000000000000000000000000000000000000000000000815260040160405180910390fd5b6002600181905550565b60018081905550565b600033905090565b6000819050919050565b6107c8816107b5565b82525050565b60006020820190506107e360008301846107bf565b92915050565b600073ffffffffffffffffffffffffffffffffffffffff82169050919050565b6000610814826107e9565b9050919050565b61082481610809565b82525050565b600060208201905061083f600083018461081b565b92915050565b600080fd5b610853816107b5565b811461085e57600080fd5b50565b6000813590506108708161084a565b92915050565b60006020828403121561088c5761088b610845565b5b600061089a84828501610861565b91505092915050565b6108ac81610809565b81146108b757600080fd5b50565b6000813590506108c9816108a3565b92915050565b6000602082840312156108e5576108e4610845565b5b60006108f3848285016108ba565b91505092915050565b600081905092915050565b50565b60006109176000836108fc565b915061092282610907565b600082019050919050565b60006109388261090a565b9150819050919050565b600082825260208201905092915050565b7f5769746864726177616c206661696c65642e0000000000000000000000000000600082015250565b6000610989601283610942565b915061099482610953565b602082019050919050565b600060208201905081810360008301526109b88161097c565b9050919050565b7f496e636f727265637420656e7472792070726963650000000000000000000000600082015250565b60006109f5601583610942565b9150610a00826109bf565b602082019050919050565b60006020820190508181036000830152610a24816109e8565b9050919050565b6000819050919050565b610a46610a41826107b5565b610a2b565b82525050565b60008160601b9050919050565b6000610a6482610a4c565b9050919050565b6000610a7682610a59565b9050919050565b610a8e610a8982610809565b610a6b565b82525050565b6000610aa08286610a35565b602082019150610ab08285610a35565b602082019150610ac08284610a7d565b601482019150819050949350505050565b7f4e487b7100000000000000000000000000000000000000000000000000000000600052601260045260246000fd5b6000610b0b826107b5565b9150610b16836107b5565b925082610b2657610b25610ad1565b5b828206905092915050565b6000610b3c826107b5565b9150610b47836107b5565b925082610b5757610b56610ad1565b5b828204905092915050565b7f5472616e73666572206661696c65642e00000000000000000000000000000000600082015250565b6000610b98601083610942565b9150610ba382610b62565b602082019050919050565b60006020820190508181036000830152610bc781610b8b565b905091905056fea26469706673582212206a8b51c52ec9c48ce8880993ce4f555a0b8db9c4e8704e997926dd9c4b3818fb64736f6c634300081a0033",
  "linkReferences": {},
  "deployedLinkReferences": {}
}